:020000021000EC
:1080000000400020010802003D0802003F08020075
:108010000000000000000000000000000000000060
:108020000000000000000000000000004108020005
:1080300000000000000000004308020045080200A4
:1080400047080200A5B50100B50E0200470802006E
:1080500047080200000000007908020047080200FB
:10806000470802008D100200310D0200470802008F
:1080700047080200470802004708020047080200BC
:1080800047080200470802004708020047080200AC
:10809000470802008505020061050200470802004A
:1080A000470802004708020000000000000000002E
:1080B00000000000000000000000000000000000C0
:1080C0000448054B10B5834203D0044B002B00D06D
:1080D000984710BD98200020982000200000000044
:1080E00006480749091A8B10C90FC91810B549105D
:1080F00003D0044B002B00D0984710BD98200020DF
:10810000982000200000000010B5074C2378002BB9
:1081100009D1FFF7D5FF054B002B02D0044800E042
:1081200000BF0123237010BDB0200020000000001C
:1081300084840200054B10B5002B03D00449054888
:1081400000E000BFFFF7CCFF10BDC04600000000FC
:10815000B420002084840200402292029A1A92469F
:108160007047C046154B002B00D1114B9D46FFF7C1
:10817000F3FF00218B460F461148124A121A0AF0EB
:1081800037FD0C4B002B00D098470B4B002B00D039
:1081900098470020002104000D000B480BF046F822
:1081A0000AF0FAFC200029000EF0A6FD0BF02AF8D8
:1081B0000000080000000000000000000040002057
:1081C000982000209C2B00208534020010B504006C
:1081D000034B036040300BF02AFE200010BDC04668
:1081E000A0730200F0B59F4E9F4C3000A54400F0F4
:1081F00069FE9E4C0121200003F008FA200003F0E4
:1082000019FA7A229A4D31009A4B009222A82A003C
:1082100000F048FD0123002404930233039302334A
:1082200005940293019300932A00E733310014A8C8
:1082300000F046FA1A236B44079408941C806434B7
:108240001A266E44330008AA07A914A800F0BCFA45
:10825000089914A80BF060FB3188050014A800F001
:1082600051FB0799070014A800F0FAFA82490600AA
:1082700009A801F06DFC81490AA801F069FC0AAA6D
:1082800009A90BA80BF03FFE2100280009F09CF87B
:1082900001000CA80BF0E7FD0CAA0BA90DA80BF030
:1082A00032FE77490EA801F053FC0EAA0DA90FA8C3
:1082B0000BF029FE2100280009F06CF908000A21C2
:1082C00009F082F8010010A80BF0CDFD10AA0FA94B
:1082D00011A80BF018FE6B4D12A8290001F038FC14
:1082E00012AA11A913A80BF00EFE13A909A80BF0EE
:1082F000FBFD13A80BF09BFD12A80BF098FD11A835
:108300000BF095FD10A80BF092FD0FA80BF08FFD60
:108310000EA80BF08CFD0DA80BF089FD0CA80BF03E
:1083200086FD0BA80BF083FD0AA80BF080FD5649D3
:108330000EA801F00DFC0EAA09A90FA80BF0E3FD91
:108340002100380009F040F8010010A80BF08BFD67
:1083500010AA0FA911A80BF0D6FD290012A801F050
:10836000F7FB12AA11A913A80BF0CDFD13A909A8B8
:108370000BF0BAFD13A80BF05AFD12A80BF057FD35
:1083800011A80BF054FD10A80BF051FD0FA80BF035
:108390004EFD0EA80BF04BFD3C4910A801F0D8FB98
:1083A00010AA09A911A80BF0AEFD2100300008F0B9
:1083B00081FF010012A80BF056FD12AA11A913A803
:1083C0000BF0A1FD13A909A80BF08EFD13A80BF06B
:1083D0002EFD12A80BF02BFD11A80BF028FD10A804
:1083E0000BF025FD2A4912A801F0B2FB12AA09A937
:1083F00013A80BF088FD13A909A80BF075FD13A8AD
:108400000BF015FD12A80BF012FD09A913A80BF033
:1084100063FD13A91F480CF0B0FE13A80BF007FD75
:1084200022A80BF0FFFA00221B4B110022A800F03B
:1084300061FC00220221194B22A800F05BFC099B81
:1084400000220421043322A800F054FC22A800F0EA
:10845000F1FBFA20C00001F07BF909A80BF0E7FC62
:10846000EEE6C046F42000205CFBFFFF4424002021
:10847000DC200020CC200020F47D0200F67D0200EC
:10848000FB7D0200FD7D0200007E0200057E0200F1
:108490000A7E02005C2400200C7E02001B7E02008B
:1084A00070B50E4C200000F057FC0D4D20002A0046
:1084B0000C490EF0C1FD00221E210B480CF05FFBA1
:1084C0000A4C022303226421200002F031FF2A001B
:1084D000200007490EF0B0FD70BDC046F42000201A
:1084E00000200020F5840100DC200020CC200020AA
:1084F000F9380200CB22154B920010B58350D223DD
:108500009B000400C0180BF092FCD1239B00E018E4
:108510000BF08DFC20009130FF3001F011FF2000A6
:108520006930FF3001F00CFF2000F03002F062FAF9
:108530002000D03002F0D6FD2000643008F0C4F8EE
:10854000201DFFF743FE200010BDC0462C7802001E
:108550007FB5134B03AA1B78002613706B46DE739E
:10856000437A0400012B15D00125017A00952B00D8
:10857000406802F0CDFC0F22217A00962B00606843
:108580006A4402F0B5FCB04207D16B46DB7B602B3E
:1085900003D06072607A04B070BD6572FAE7C046BD
:1085A0002B7E0200F0B504000126444B89B01B78F5
:1085B00002AA0120137301F0CBF8217A0096330050
:1085C00005AA0027606802F0A3FC2200217A009728
:1085D00006236068103202F08BFC0500B84203D01D
:1085E0006772280009B0F0BD300001F0B1F88E23A9
:1085F00002AA1373217A0096330005AA606802F07C
:1086000087FC2200217A00951223606816320295B9
:1086100002F06EFC051EE3D1300001F099F8A123B1
:1086200002AA1373217A0096330005AA606802F04B
:108630006FFC06AF217A009533003A00606803951D
:1086400002F056FC029B051E18D1300001F080F8A4
:10865000E12302AA1373217A0096330005AA606809
:1086600002F056FC1122217A02A800951218072365
:10867000606802F03DFC051E02D0039B6372B0E708
:1086800023003A7828331A7002AB5A7C9B7C1B0279
:10869000134363852300FA782C331A700F227B79F9
:1086A00039791A4009010A43E285BA791B09120196
:1086B00013432386FB793234237092E72D7E020028
:1086C000F0B59C4604000D00256065461600257235
:1086D00000256660F22689B012A8007865720390C2
:1086E000039D0EABA57306AD2E7002361978AE70E1
:1086F00001362E71EE3EA172314069701C210FAB24
:108700001F7810AB1B78E77223739B000B407F012F
:108710001F43032311AA127813A8007862731A402A
:10872000039BE073800008405B01184317436871A6
:108730002000EF70FFF70CFF01280FD00023266800
:108740001E496372F03605A801F002FA7822300063
:1087500005A902F035FB05A80BF069FB0026217A7C
:10876000009606232A00606802F0D2FBB0420ED0C9
:10877000256813496672F03505A801F0E9F97822F9
:10878000280005A902F01CFB05A80BF050FB2000F7
:10879000FFF708FF00280DD025680A49F03505A825
:1087A00001F0D6F97822280005A902F009FB05A8F6
:1087B0000BF03DFB200009B0F0BDC0462F7E02004B
:1087C000397E0200447E0200F0B589B00393234B4A
:1087D00005AD1B7804002B70437A0F001600012BA7
:1087E00005D0FFF7B5FE012835D100F0B1FF012318
:1087F000217A00932A00606802F08AFB0023217A24
:1088000006AD00932A006068083302F071FB00286F
:1088100003D00023637209B0F0BD002F08D06A783E
:108820002B7812011B031343AA78120913433B60F0
:10883000002E08D0EB782A791B03120113436A79C2
:10884000120913433360039B002BE4D0EB88039A97
:108850005BBA1380DFE701204042DCE7567E02006E
:1088600070B50400436B244A5B109B189E1076433E
:108870000D001A22815E72134A431820215ED21025
:108880005943491052188021921409025218E18A62
:108890005143C913081E29D02020225EF6127243CC
:1088A0001E26A05F43435B009B181C20225E9B108A
:1088B0001204D31811481B135B195843104BC018EE
:1088C00015D4400008F0F6FC2425635F81084B4373
:1088D000C20852432225615F5B135B182621615E4B
:1088E000520B4A4312139B181B11181870BD08F045
:1088F000E1FC4000E8E7C0460006FFFFCBF3FFFFC6
:10890000000050C3426B254B10B5D2188B03802159
:10891000C9015B182E24015F09055B1A3024015F31
:10892000802451435B1A01002C3109782402514301
:10893000C9120919040032342478DB1364B262438B
:1089400092124A4380219212890352182A24015F0D
:1089500028304A4380218901521892135343DA1375
:1089600052430178D2114A4312119B1AC822520570
:1089700093420FDD1300FA2064241B139A0A9B050F
:108980009B0D800058430A21800A544308F092FC52
:10899000001910BDDA43D2171340ECE700D4FEFFF4
:1089A000F0B5060012208BB00F0014000021162233
:1089B00068441D000AF01CF96B4680205F7418742F
:1089C0006B000B2D26DC002D09D0220004A96519AF
:1089D000147801328870CC700231AA42F8D100229A
:1089E00000927A217068023304AA02F091FA041E00
:1089F0000DD035680949F03503A801F0A9F87822AF
:108A0000280003A902F0DCF903A80BF010FA2000FB
:108A10000BB0F0BD16246442F9E7C046587E020050
:108A200010B5044BC154C21881210123FFF7B8FFD0
:108A300010BDC0460F04000010B5074BC35C082BE7
:108A400005D10023A1211A00FFF7AAFF10BD0023C2
:108A5000A0211A00F8E7C046110400000F2373B5E7
:108A600019406B4612011143C9B2DE1C040031707B
:108A7000F0290DD005680A49F03501A801F068F821
:108A80007822280001A902F09BF901A80BF0CFF988
:108A900032000123D5212000FFF782FF76BDC046BA
:108AA000667E0200F7B56B46012700250400DE1C38
:108AB000574B3900C7548068357002F08BFC380082
:108AC00000F046FE2900A06802F084FC0A2000F0B5
:108AD0003FFE3900A06802F07DFC2B002A00AE2189
:108AE0002000FFF75DFF051E0FD024684949F034D0
:108AF00001A801F02DF87822200001A902F060F908
:108B000001A80BF094F92800FEBD022120000AF014
:108B100038FF051E03D024683F49F034E8E70F22F0
:108B200001002000FFF79AFF3F2120000AF051FFCB
:108B30003A4B2000E25C3A4BE15C0AF055FF2B0017
:108B40002A0029002000FFF72BFF364BE35C002BA7
:108B500007D11433337032003B008D212000FFF722
:108B60001FFF002120000AF0EFFE051E03D024683D
:108B70002D49F034BCE701007F2220000AF0EDFE11
:108B80002900072220000AF0F2FE2000FFF754FF20
:108B9000051E03D024682549F034A9E720000AF017
:108BA00008FF051E03D024682149F034A0E71223F2
:108BB0003200DA2133702000113BFFF7F1FEFF2174
:108BC0002000FFF72DFF174BE35C002B0FD1F13393
:108BD0003200D92133702000F03BFFF7E1FE302353
:108BE00032003370DB2120002F3BFFF7D9FE00233A
:108BF000B0211A002000FFF7D3FE042120000AF064
:108C0000C0FE012120000AF0C7FE05007BE7C04638
:108C100015040000727E02007E7E02001304000034
:108C200012040000140400008D7E0200967E0200F3
:108C30009F7E02007FB5184E0500815D00290DD191
:108C40007F220AF08AFE041E23D101000722280099
:108C50000AF08DFE041E1CD10123AB5540232B735B
:108C600000232A0000937A210C4B68680C3202F032
:108C70004FF9041E0DD02D680949F03503A800F006
:108C800067FF7822280003A902F09AF803A80BF0E6
:108C9000CEF8200004B070BD1504000001040000EF
:108CA000A87E020010B504002160210002A8A36084
:108CB00000780B4B62600C31E054002220000AF077
:108CC000A7FE084B084A2000E252084A0233E2504D
:108CD0008022074B5200E252FFF7E4FE200010BD55
:108CE0000D0400000E0400000480FFFF07080A04C2
:108CF00014040000F0B587B0039018000C001600B3
:108D0000049309F003FD00250590059B9D4203DBBC
:108D10001D00280007B0F0BD049B5A5D0023202AE7
:108D200001D9203AD3B20B4A0399DB009B18771C78
:108D3000FFB200933200230003980C310AF079FE51
:108D40000F2F04D90134E4B2072CE2D800273E00EB
:108D50000135DAE7A07002001423F0B5040093B0E7
:108D6000192200931821043002F07AFD2300260016
:108D7000270064331800B43613211093B83707F076
:108D8000AFFC30000CF075FA00221E2138000BF009
:108D9000F6FE2000D03002F0C5F92300F0330721A1
:108DA0001800454A119301F04BFE200000250123D5
:108DB00069301A0011210095FF3001F0CBFA200034
:108DC0009130012302221A210095FF3001F0C2FAEE
:108DD0002000B930022201210323FF3002F06EFA95
:108DE000380001F0C7F8E4235B00E050380001F0E0
:108DF00009FBE6235B00E0500100E422200000961E
:108E0000D1305200119BA258FF3001F0F3FB20003B
:108E1000E13031000822FF3002F0C2FE782320004A
:108E20000F93013B0E93033B0D93013B0C93013BCE
:108E30000B93013B0A93013B0993013B0893013BD0
:108E40000793013B0693013B0593013B0493013BD0
:108E50000393013B0293013B0193F930013B6522EF
:108E600000936421013BFF300BF0AAFECB239B0053
:108E70003100E01803F026FED4239B00E0180921FE
:108E800002F02CFBDE239B00E55010980321257097
:108E90000DF008FE23002200200008499C33A03278
:108EA0001C6022C2064A02215A618030012207F06A
:108EB00093FD200013B0F0BDA8730200613A0200D8
:108EC0004B3A02000278F0B501231700040091B07C
:108ED0001F401A4264D10300D0331800049300F0FD
:108EE000CBFA00F0D9F930200EF0B1F805001030BF
:108EF0000BF02CF8280024300AF0D0FE674B182025
:108F00002B600EF0A4F80600654B082239000460BF
:108F10000C300E930F9709F06BFE0EA90822301D3E
:108F20000AF046FA5F4B2900736112230498AE6081
:108F3000EF60AB802F62EF6202F06AF8002805D084
:108F400028000AF035FF28000EF07DF80123227872
:108F50005549134323702300B433180005930CF0D4
:108F60008EF95249039005980CF089F90026069075
:108F7000642000F0EDFB3500370023006933FF3338
:108F8000180007930BF0F2F900285CD1039B002B2B
:108F900062D1069B002B5FD14549464800F084FC16
:108FA00011B0F0BD002B70D1069B002B02D0180031
:108FB0000EF049F83E49404800F076FCDE239B0065
:108FC000E358002B36D100F085F801000BA800F023
:108FD000BFFD0AF0CBFD08900AF0C8FD6B46099072
:108FE000198C0DA80AF03FFF099B0EA8190C0AF076
:108FF0003AFF0EAA0DA90CA80AF085FF0EA80AF0E8
:1090000016FF0DA80AF013FFCB20012380000CAA45
:109010000BA900932018049B03F0AAFD0CA80AF0EA
:1090200006FF0BA80AF003FFCD23DE229B00E358C6
:109030009200A350CB2321009B00079AF031E01847
:1090400003F07EFF99E720009130FF300BF08EF99E
:1090500000289BD0182F99DC2000653029B2FF230F
:1090600032B2FF30013500F0EFFDEDB2322000F0FA
:109070006FFB0137052D02D100250136F6B2039BA7
:10908000192F8FD0002B00D177E70749059802F000
:109090001BFD03980DF0D7FF86E7C046FD030000D7
:1090A000D33A0200933A0200BA7E0200C57E020063
:1090B0000020002008000020001C0020BFF34F8F7C
:1090C000024B034ADA60BFF34F8FFEE700ED00E08A
:1090D0000400FA05F0B58BB01922164903A80AF06E
:1090E00067F90023144D05266B7180235B055B6EC9
:1090F0002C0000930123370001933100009808F001
:109100005FF90800019908F0D5F8009B03AA1B1A23
:109110000093019B7E437B4301932B1B7B43D3181E
:109120001B5C013C6371054B9C42E6D102480BB0CD
:10913000F0BDC04658810200D62A0020D12A002066
:10914000F0B595B01822002104000EA809F050FDDA
:1091500013210EA80DF0B6FD03210EA80DF055FE4B
:10916000474B1B68002B00D10133DBB20193002178
:109170000123444A09A807F097FDFA239B009C426B
:109180009B411C4072B6404B64211E683F4B20003F
:109190000593052508F018F96843503030180A2166
:1091A0000690200008F010F90A2108F0F3F969434D
:1091B00050317118200007910A2108F0EBF94D4356
:1091C00050357619089680260024B601019B002BA5
:1091D0004BD004AD45E0032C02D180260024B6011B
:1091E0006B682B4A029363009B1800220092587808
:1091F0000299095C039119788C461021604601415F
:109200000398014204D0012090400099014300914D
:1092100001320633092AEAD1009B029AD9431D4B39
:10922000090119402B689A421DD1312F1BDC002106
:1092300009A80DF0A6FEFA23139A0F99DB00106817
:10924000014212D0013B002BF9D1FA23013401373E
:109250007600E4B25B009F42BDD1043508ABAB425F
:1092600005D00027B7E73143E2E7FFF727FF044BBC
:109270001B68002BAAD0019B013BDBB20193A5E741
:1092800074240020F0FF0000042000201D81020053
:1092900022810200F01F0000F8B50023124C236069
:1092A0000AF056FC002808D0042120000AF04CFCEB
:1092B000002801D00D4B2360F8BD0123A127042114
:1092C0000B4A0C4D13602368FF0068606E68002E27
:1092D000FCD0D6591B02013933430029F5D1236054
:1092E00001235360E8E7C04670240020ED5EBC0B0C
:1092F00000D00040FCD000400B4B70B51C68002C27
:1093000000D170BD656D00F0DFFBA36C002901D1B9
:10931000834206D820000AF072FC200003490AF0BC
:109320005EFC2C00EBE7C046A0240020A424002013
:10933000F0B595B00793294B04901C68284B059114
:109340001F680023069285B2060C02939F421ED12D
:1093500015B0F0BD636D23480393A36C190C9AB24A
:109360000B0085422AD12048824227D1002901D012
:10937000B1420BD1029B002B06D120000AF03FFC2A
:1093800020001A490AF02BFC01230293039C002CB5
:10939000E0D1174BEB18012BDAD9102229000092EB
:1093A000144B320008A80AF0E9FC3B6838009B68BF
:1093B00008A9984708A80AF0FBFCC9E7002A01D0D1
:1093C0009542E3D1002901D0B342DFD120000AF059
:1093D00016FC200005490AF002FCD7E79C24002077
:1093E00090240020FE030000FF030000A4240020BE
:1093F00002FCFFFF3193010010B572B60E4B1C68E2
:10940000002C0ED020000AF0FAFB0023E3640B4B83
:10941000E36372B60A4B1A681C60A26562B620004C
:1094200010BD62B65C200DF012FE5C22002104002B
:1094300009F0DEFBE9E7C046982400200040002048
:1094400094240020064B10B51C68E36CDB0705D59F
:10945000FFF7D2FF034B1860002800D1200010BD99
:10946000B0240020AC240020024B187801231840BF
:109470007047C046DC2A0020F7B50600FFF7F4FF6E
:10948000041E33D11A4D2E60FFF7B6FF194B1A494F
:1094900018600AF0A4FBFFF7AFFF184B1860184BD9
:1094A0004363184B8363286800280ED0C027164EEC
:1094B00022003300154900970AF06BFB0097330038
:1094C0002200134928680AF064FB0C200DF0BFFD50
:1094D0000023838083710F4B03600F4B836000F088
:1094E0000BFB01230D4A11780B431370F7BDC046E7
:1094F00090240020B0240020A4240020A8240020D0
:10950000FC3F0020913C020031930100FF0300006A
:10951000FE030000C8730200F9920100DC2A00205B
:10952000F7B5134F04003B680E00002B1DD0FFF76A
:109530009BFF002819D0FFF785FF05003304234364
:1095400083640AF05CFB28000A490AF048FB0A4BD6
:10955000E318012B07D9C022009221003200074BEB
:1095600038680AF016FB0020FEBD0548FCE7C0463F
:10957000902400209C24002002FCFFFF3193010076
:1095800016FCFFFFF7B506000D0017000193002839
:1095900002D100242000FEBD0029FAD0FFF72CFFE5
:1095A000041EF6D0074B019A43630660064B4560E4
:1095B0008760002A00D0054B20000549A3630AF00C
:1095C0000EFBE7E7FC3F00205B3C0200793C020019
:1095D000A4240020F8B50500EFF30883C46B006CE9
:1095E000E41A6B6C1B1A9C420FD91F23074E2034C0
:1095F00037689C43002801D000F0B8F9200000F043
:1096000081F92864001968643760F8BDB02400202F
:10961000024B1868434258417047C046A4240020BA
:109620000300002210B5044994000859002801D114
:10963000635010BD0132F7E778240020002310B5F5
:10964000044A99005458844202D10020885010BD29
:109650000133F6E77824002010B50024084AA3005F
:10966000D058002802D003685B6898470134062C64
:10967000F4D1044B1B68002B00D120BF10BDC046A5
:1096800078240020A4240020F8B5FFF7EDFE002880
:109690001CD0294D2C68E36CDA0718D50226334319
:1096A000E364264B1F680423FA6C38001343FB6401
:1096B000636BFB63FFF78EFF3800796C04F033F8BF
:1096C0002868C36C334201D004F067F8F8BD1C4F22
:1096D0001C4E3A683168002A0AD129601B0711D54F
:1096E0002C60FFF7B9FF3B68002BFAD02B6009E034
:1096F000206DB84203D1606D002800D002002A60BE
:109700009142EBD029688C42E0D0336899420BD16A
:109710000D4B4B630D4B8B632000FFF75BFF2968FC
:1097200020004B6C626C04E09C42F5D100221000DA
:109730004B6C03F0B7FFC9E7B0240020AC24002035
:10974000A4240020A8240020FC3F0020913C02001B
:1097500070B50400FFF788FE002803D120000DF04B
:109760004DFB70BDFFF76EFE050000F0ADF924184B
:10977000AC6428000AF043FA280003490AF02FFAE3
:10978000FFF782FFEDE7C046A0240020F8B5FFF701
:109790006BFE002819D00024184E30680AF02FFA0A
:1097A000174D2B68002B11D1032C12DC29003068D7
:1097B0000AF015FA72B6134932680B68934214D155
:1097C0009B6D0B6062B6FFF75FFFF8BD5B6D013408
:1097D000E8E72F68013C7B6D386C2B6000F0C6F821
:1097E000380000F0C3F8DFE70B00002BEAD0996DDA
:1097F0008A42F9D1926D9A65E4E7C046B024002010
:109800009824002094240020F8B505000C000028BE
:1098100029D0FFF729FE002827D0154E3068C36CE9
:109820005B0706D021002800124A0AF0FEF900204A
:10983000F8BD03F09AFF3268D36C990703D5032172
:109840008B43D364F3E701273B43D3642000A8474D
:109850003268D36C1900B943D1645B07E7D52000A7
:109860000AF002FAE3E70448E2E70448E0E7C0460A
:10987000B0240020693C020017FCFFFF16FCFFFF2C
:10988000020010B5014B12CB12C210BDB42400204F
:10989000034B1A68034B1A607E225A607047C04619
:1098A00004200020B4240020F0B5124E03003478C8
:1098B000022C1BD081421BD90D1A072D18D90A0082
:1098C00002430327100038403A4211D172B6BC401F
:1098D000094AAD08A35012195160802212062A438A
:1098E0001A6033780133337062B6F0BD0348FCE789
:1098F0000348FAE7DE2A0020BC24002013FCFFFF07
:1099000017FCFFFF70B5041E19D0124D124E2B78B4
:10991000002B0CD1114812493370FFF7C5FF114BD2
:10992000984202D11E20FFF70BFC01232B7000256B
:109930003378AB4204DC1420FFF702FC002070BD3A
:10994000094BE9002000C9180AF0ACF90028F6D14B
:109950000135EDE7DD2A0020DE2A0020A02B0020C3
:109960000038002017FCFFFFBC24002010B50028A1
:109970001BD000220F4B19780F4B914203DC1E20A5
:10998000FFF7DEFB11E01C6884420FD25C68844262
:109990000CD9041F2368002B02DC1E20FFF7D0FB2C
:1099A000802322681B061343236010BD0132083355
:1099B000E3E7C046DE2A0020BC24002070B5051E67
:1099C00014DD0B4E0B4C3368002B02D020680DF0D9
:1099D000CCF8FA2120680024074B89008361C46217
:1099E000694335600DF0D2F8200070BD0348FCE7F4
:1099F000FC240020D0240020A59A010017FCFFFFC2
:109A0000F8B5114F05003E68002E0AD130200DF048
:109A10001EFB040006F0CAFE0C4BA6612360E66242
:109A20003C600B4E3368002B09D110200DF00FFB6A
:109A300004000DF0F7F8200034600DF0CDF8280098
:109A4000FFF7BCFFF8BDC046D0240020D47B020045
:109A5000CC240020014B18687047C046FC2400202D
:109A6000D0B50D4C2368002B03D00C4B1B68002B8A
:109A700002D10620FFF7C4FF20680DF0C4F80600ED
:109A80000749C7170A684B6892197B4120680A602A
:109A90004B600DF0BEF8D0BDCC240020D0240020B7
:109AA0009820002010B5FFF7DBFF0024054AA30033
:109AB000D058002802D003681B68984701340A2C4C
:109AC000F4D110BDD424002010B5FFF7C9FFFA224D
:109AD000034B920018685968002307F09BFD10BDE6
:109AE0009820002010B5FFF7BBFF024B186859689B
:109AF00010BDC046982000200B4B10B51B68040019
:109B0000002B03D0094B1B68002B02D10620FFF766
:109B100077FF0023064A99005058002801D18C5045
:109B200010BD0133F7E7C046CC240020D02400202C
:109B3000D4240020002310B5044A990054588442CC
:109B400002D10020885010BD0133F6E7D424002054
:109B500010B50400002902D00B78002B03D1034B71
:109B60002360200010BD0AF069F9FAE7D8730200FB
:109B7000F8B504000E00150000290AD00B78002B60
:109B800007D0002A05D0080097B208F0BFFD874231
:109B900003D90B4B23602000F8BD681DFFF7B2FE10
:109BA00020600AF0E9FA20682A004780310004307A
:109BB00009F0FEFB002223685B191A71EBE7C0462F
:109BC000D8730200014B03607047C046D87302008F
:109BD00010B50548054C20600AF0D1FA2000044A6F
:109BE00004490DF029FA10BDD873020000250020A9
:109BF000002000202F3E0200084B73B51D680400B2
:109C0000002D0AD001002E6808220831684609F0AC
:109C1000CFFB0CCC28003168884773BD0425002099
:109C2000014B03607047C046E073020010B50400AA
:109C3000081E03D1034B2360200010BD21600AF0F1
:109C40009EFAF9E7E073020030B500684488A1424B
:109C50000BDA8588AA4208DA0D00154305D454436F
:109C6000401800198371002030BD0148FCE7C04650
:109C700017FCFFFFF0B507000D001E0085B000299E
:109C800024DD002A22DD002B20D0046863880393A2
:109C90008B4200DD0391A3880293934200DD029280
:109CA000002306340193019B029A934202D10020C3
:109CB00005B0F0BD31002000039A09F079FB3B6844
:109CC00076195B88E418019B0133EBE70048EFE766
:109CD00017FCFFFFF8B51F000B0004000D00160075
:109CE000134302D50D4B0360F8BD10004843063006
:109CF000FFF708FE20600AF03FFA23685D809E802F
:109D0000002F06D03B00320029002000FFF7B2FFF1
:109D1000EAE720000AF06BF9E6E7C046E0730200CC
:109D2000F7B507000D1E3DD1244B03603800FEBD82
:109D30003022524294469C446246092A30D90A2B6A
:109D400029D1631E9C41019B361901330193B14215
:109D500000DA31000024260001300378002BE7D11F
:109D60000126019A380012B209B27642FFF7B2FF1B
:109D700031000A203A6806322C78002CD6D0230015
:109D8000303B092B14D8F343DB17334043431E19F0
:109D9000303E0135F0E7002CDED000240136DBE751
:109DA0000124D9E700240800260021000194D4E70B
:109DB000002EEEDB16700E000132EAE7E0730200BF
:109DC000F0B5040087B004A80E001D000192FFF753
:109DD00057FD236801995A88914232DA9B889D4247
:109DE0002FDA1F2E2DD9059B9E422ADC05217143B7
:109DF000049BA0395B1800210393039B6E185B5CE6
:109E000002930023019AD718226850880090874255
:109E10000EDA908886420BDA0098D2197043121835
:109E200010201841029F3840471EB84140429071AF
:109E30000133052BE6D101310529DED1002007B021
:109E4000F0BD0148FBE7C04617FCFFFFF7B503680C
:109E500005009E1D5B880C005A1A0192002919DD2D
:109E60000027994211DB0AF0C2F80020FEBD31192B
:109E70003000019A09F09CFA019B2100F0180AF0C9
:109E800099F82B6801375B88F6182B689B889F42EE
:109E9000EDDBEAE70048E9E717FCFFFF10B50548EE
:109EA000054C20600AF06BF92000044A04490DF0CB
:109EB000C3F810BDE0730200082500200020002038
:109EC000A73F020010B5054C012120000AF04BF914
:109ED0002000034A03490DF0AFF810BD0C25002007
:109EE0000020002023410200074A030010B5012092
:109EF000934207D0834201D0DB0702D41E20FFF734
:109F00001FF9002010BDC046FFFF00000048704749
:109F100016FCFFFF10B53220FFF712F9004810BD04
:109F200016FCFFFF8280142200234162010010B55D
:109F30000E4C028104600E24123A83718272036314
:109F4000838636310A78C360A2430361436183612B
:109F5000C36103620A70021DD38701224287044A4B
:109F6000C26302004032137010BDC0460874020084
:109F700001000100F0B5514F97B03B680500059313
:109F8000002B3DD106AC1C2282210B33200001F0B6
:109F9000CFF90EAE0B231D2283210AA801F0C8F9C8
:109FA0000B231B228421300001F0C2F908200DF0A0
:109FB0004EF80122059B110004900BF0C4FC3A21DD
:109FC00028000BF0DCF9002825D05C200DF03FF8CC
:109FD000A38812AA9380A379A1689371384B0600D5
:109FE00012930E23E356916093730523A189918107
:109FF0000193353300932900049B02F0B7F83E60CB
:10A00000304B2E4C1868002802D021680AF01BFA49
:10A01000206817B0F0BD322128000BF0DEF90028CF
:10A020001AD05C200DF013F8A38812AA9380A379AC
:10A03000A1689371224B060012930E23E3569160A0
:10A0400093730523A189918101932D3300932900F6
:10A05000049B02F01BFAD2E73C2128000BF078F9B0
:10A06000002820D0A4200CF0F2FFB38812AA93801D
:10A07000B37904009371124BB16812930E23F35617
:10A08000916093730623B18991810293013B0193FF
:10A09000373300932900049B01F086FF094B3C6095
:10A0A00044341C60ACE744200CF0D1FF04000522CE
:10A0B0000499FFF737FF3C60A2E7C0461025002057
:10A0C000F073020014250020F0B56349C56885B01F
:10A0D0008D4258DA030036331C78022223001340E5
:10A0E00014425BD1026901928A4265DA020036327B
:10A0F000127852076AD4426902920200029C4032EE
:10A100008C4270DA010036310978090775D4002BCA
:10A110007ED113789C46002B16D00100061DF38FCC
:10A12000363101339BB2F3870391097801270C0084
:10A130003C40394200D188E01D2B05D9039BB9432F
:10A1400019700023F38713700AF05EF8434A07235F
:10A15000904277D94249043B8D4273DBC8220133D8
:10A16000920095426EDC0198023B88426ADB013B1B
:10A17000904267DC02980433884263DB01339042EB
:10A1800060DC00235EE0C822002352009542A9DD76
:10A19000030036331A7800239207A3D40123060064
:10A1A0001F00363632785408A7433C0002279C40F3
:10A1B000BA432243327095E7C822019C5200944270
:10A1C00099DD020036321278520794D4012306003A
:10A1D0001C00363632789708BC43A7000424A243FB
:10A1E0003A43327087E7C821029C49008C428EDDD9
:10A1F000010036310978090789D40100012636317A
:10A200000B78DF08BE430827F600BB4333430B70CF
:10A210001378032B00D97CE70133DBB21370012BD9
:10A2200003D10021031DD98773E7042B00D070E709
:10A23000020036321178033B0B43137000230430C5
:10A24000C3870B33180005B0F0BD092B00D87BE79E
:10A250006346F487013B76E770FEFFFFFF70020064
:10A26000E0FCFFFF70B5C369C1681A68451D0400B2
:10A27000EB7F8AB0114245D0002B5AD1EB7FA279F7
:10A28000012B23D801231A4220D000250222A188C5
:10A29000A57102A809F064FEA31DDE7F012E15D171
:10A2A000FFF712FC2B00226A801A9941009001915D
:10A2B000019BA188AB4204D1FA23009A9B009A42E9
:10A2C00039D30123042206A809F04AFE0322A37908
:10A2D0001340012B14D1FFF7F7FB0023226A801AE9
:10A2E0009941994202D1154B984209D90223A2798A
:10A2F000A1881343A3710522012306A809F030FEAB
:10A300000AB070BD0B2B0ED90122A3791342DDD107
:10A310001343A188A37106A8130009F021FEFFF7DB
:10A32000D3FB2062AAE70133DBB2EB77082BA5D978
:10A33000EAE7013BF8E733000322C4E7DB0500004E
:10A3400010B50400024B0360FFF7F4FB200010BDC2
:10A350003C740200F0B5060000250F00040085B033
:10A3600002930AAB1B78083603930F4B2900036056
:10A370000192858085711822300008F039FC39007F
:10A380003000039A0CF0A3FC019B029AA380A31D4A
:10A39000E771DA77631D25622000DD77FFF7ACFBFC
:10A3A000200005B0F0BDC0463C7402000048704774
:10A3B00016FCFFFF10B53320FEF7C2FE004810BDAB
:10A3C00016FCFFFF002310B50400838083710C4846
:10A3D000216420608020C000A061E0612062110043
:10A3E0002000E360236163616362A362E36223632D
:10A3F0006363A363E363636409F0FEFF200010BDA1
:10A4000054740200F0B54F4F97B03B6805000593B8
:10A41000002B3DD11C2282210B3306A80AAC00F090
:10A4200087FF0EAE0B231D228321200000F080FF4A
:10A430000B231B228421300000F07AFF08200CF04F
:10A4400006FE0122059B110004900BF07CFA1D21F1
:10A4500028000AF0ABFF002823D060200CF0F7FDA5
:10A46000A38812AA9380A379A1689371364B060042
:10A4700012930E23E356916093730623A189918171
:10A480000193173300932900049B01F033FF3E60D2
:10A490002E4B2C4A1B681068002B00D0436417B069
:10A4A000F0BD3C2128000AF0AFFF00281AD0602040
:10A4B0000CF0CDFDA38812AA9380A379A1689371B3
:10A4C000214B060012930E23E356916093730623EB
:10A4D000A18991810193363300932900049B02F0F6
:10A4E00077F8D4E73C2128000AF032FF002820D07A
:10A4F000A4200CF0ACFDB38812AA9380B3790400B9
:10A500009371114BB16812930E23F35691609373BC
:10A510000623B18991810293013B01933733009364
:10A520002900049B01F040FD084B1C6044343C6052
:10A53000AEE748200CF08BFD062204990400FFF7DB
:10A5400041FFF4E714250020F073020010250020DD
:10A55000F0B587B001930EAB1B88060003930D9BEB
:10A560000D000093019B0C9F0292002B3DD0002F09
:10A5700002D1009BDB0738D530200CF068FD0400C9
:10A58000103009F0E3FC2000243009F087FB029B27
:10A590002580638018200CF05AFD0500009B0822DE
:10A5A0000593019B002103600C30049708F020FB09
:10A5B000082204A9281D08F0FBFE0D4B02226B6146
:10A5C00000230399E3602362E36233680A433000A7
:10A5D00021005B68A560A2809847002805D0200074
:10A5E00009F0E6FB20000CF02EFD07B0F0BDC046E0
:10A5F0008D44020070B58CB08360109B0160426096
:10A60000C3600400184918000AF039FE051E14D072
:10A6100001001C22103105A808F0CAFE6A4608ABEA
:10A6200043CB43C21B68136020680599069A079BB9
:10A6300009F0F3FE28000CF006FD0C4B186800280A
:10A640000ED00B4A05AB059200220692C032029250
:10A650006A4622CB22C2230003220621FFF778FF9D
:10A6600020000CB070BDC046D57E0200042500203D
:10A6700075A6010082B0F0B50400E9B064206F93C4
:10A680006E920CF0BBFB05220CA8110009F0B8FC7F
:10A6900090490DA8FFF744FB192500221DAB013D91
:10A6A0001A605A609A600C33002DF8D119222900E3
:10A6B0000FA808F09DFAA0680AF05AFAFF210B9043
:10A6C000A06800F00BFC844FA06800F0AFFA05957D
:10A6D00008950A95804B9F4203D0804B9F4200DB38
:10A6E000EEE0A0680AF046FAA5687D4916A8FFF7D3
:10A6F0002FFA782216A9280000F038FB16A809F0D6
:10A7000096FB0023744F059303260A9B6068013370
:10A7100033400A9309F010FE0500606809F013FE4B
:10A720000022704B06929D420FDB013206922A00F6
:10A73000C8320ADBAA22042192000691954204DC69
:10A7400002220692C82D00DD06960022079298424A
:10A7500010DB012307930300C8330BDBAA23043269
:10A760009B000792984205DC02230793C82801DD6D
:10A770000133079300260CA809F039FC5A4D0995BE
:10A780000FABF35C012B06D1099B0CA85A78197802
:10A79000FF23FFF759FA099B013602330993192E5B
:10A7A000EED16B461C229A5E6B460CA81821595EAE
:10A7B0000A9BFFF749FA002F02DB059B0F2B07D9F5
:10A7C0000023A0681A00743000930CA909F025FC3E
:10A7D0000FAE2B78069A934219D16B78079A934261
:10A7E00015D13378012B12D00C23089A21685343DA
:10A7F0001DAAD018002209F028FE01233370089BFF
:10A800000133DBB20893059B0133DBB20593374B71
:10A8100002350136AB42DCD164200CF0EFFA089B24
:10A82000643F3FB2182B00D854E71A001DA916A8A0
:10A830000AF01EF86A4619AB23CB23C21B681360CB
:10A840001699179A189B206809F0E7FDE568002D16
:10A850000CD027490EA8FFF77BF91C23280016AA65
:10A860000EA90AF040FD0EA809F0E1FAA0680AF06E
:10A8700081F90DA90EA8A56809F0A2FB00221D4BC5
:10A8800000920EA901932800130000F013FA0EA8FD
:10A8900009F089FBFA2080000CF0B0FAA0680AF0F9
:10A8A00069F90B99A06800F019FB0DA809F07BFB72
:10A8B0000CA809F078FB69B0F0BC08BC02B01847DE
:10A8C000002F03D0059B0F2B00D01DE7A06800F0E0
:10A8D000ADF919E7E07E02008C3C0000D18AFFFF51
:10A8E000257F020058FDFFFF4C8302007E8302009B
:10A8F000D57E0200DC050000F0B5040085B0637A67
:10A900009C46002B04D1200009F0D0FF05B0F0BD1B
:10A91000A37A266F01931023019AF35600259B1802
:10A9200001229A402900F36802920393039BAB42F1
:10A930001CDC1123C943F356606C9940236919400C
:10A94000029B19430CF01DFBA27B072ADED8637B18
:10A9500025495B006373531CDBB290004158A3731D
:10A96000022A35D808000CF03EFAC8E7B368019A0D
:10A970006B4370699B185B00E77AC218C35C507820
:10A98000E279012F14D1571E3F1A18003B004243B1
:10A99000606F52008018C0188379634500DD6346FC
:10A9A000627B1A4202D00123AB4019430135BDE757
:10A9B000022F05D1571EFB1A277A013F381AE6E706
:10A9C000032FE4D1277A013FFF1A03003800DEE7A6
:10A9D000064B2000236300236363054BE46223647A
:10A9E00014300CF0D3F891E790740200F9A801003C
:10A9F0009748020070B504000F4B25000360FFF775
:10AA000099F82000743009F0CEFA2000603009F087
:10AA1000CAFA2000583009F00AFA2000503009F034
:10AA200006FA064B1435280063610CF09EF82800E6
:10AA300005F0D0FE200070BD80740200D47B0200BF
:10AA4000F8B500250400314B858003608571143012
:10AA500016000F0005F0AAFE20002D4BE562636191
:10AA600025645030FFF7AEF820005830FFF7AAF801
:10AA700020006030FFF7D4F8200031680423F25E34
:10AA8000490009B22667743009F0BAFA3368012028
:10AA9000E3717368226F237210236581A78025619B
:10AAA000D35691685918994224DC11230120D356BA
:10AAB000D2689A189A4222DC14200CF0C8FA226953
:10AAC00000212A430123060006F0EEF8FF232200AE
:10AAD00063720133A381002348326664A3732000AC
:10AAE0001370A366FFF708F80123A279200013432F
:10AAF000A371F8BD06009E4001333543D3E706003D
:10AB00009E402169013331432161D3E78074020003
:10AB1000E87B0200F0B5437A040085B0002B04D135
:10AB2000200009F0C3FE05B0F0BD837A066F0193E3
:10AB30001023019AF35600259B18012294469A404F
:10AB40002900F36802920393039BAB4228DC112394
:10AB5000C943F356606C994023691940029B19431D
:10AB60000CF00FFA667AB31EDBB2FC2B14D8FEF79A
:10AB700071FF224B05002363002321486363214BAF
:10AB8000FF217043E462236406F01EFC2900414368
:10AB9000200014300BF0FAFF637A012BC3D8BFE713
:10ABA000B368019A6B4370699B185B00E77AC2181F
:10ABB000C35C5078E279012F10D1571E3F1A18005C
:10ABC0003B004243606F52008018C0188379002B0D
:10ABD00002D06346AB4019430135B5E7022F05D1DA
:10ABE000571EFB1A277A013F381AEAE7032FE8D1EC
:10ABF000277A013FFF1A03003800E2E7AD48020060
:10AC0000B6030000974802001FB5012381881A008F
:10AC1000684609F0A5F9012368461A00024909F0BF
:10AC20009FF905B000BDC046FE0300001FB503003C
:10AC300048331A780400002A0DD000221A7001232C
:10AC400081881A00684609F08BF9012368461A00CA
:10AC5000034909F085F92000743009F0C8F91FBDD7
:10AC6000FF03000010B50400230048331A78002ABF
:10AC700007D01B78012B04D00121024808F0E4FF23
:10AC8000F2E710BDFF03000010B50121040007200A
:10AC900008F0DAFF064B984208D148342378002B9D
:10ACA00004D02378012B01D020BFF7E710BDC046A8
:10ACB00016FCFFFF73B5079E0400002E1CDB050089
:10ACC00048352878002802D02878012816D106981F
:10ACD0001BB2C0B20090200012B2743009F09DF98E
:10ACE000002E07D023004A331E8000234C342380DB
:10ACF00007332B70002076BD0148FCE70148FAE7D6
:10AD000017FCFFFF12FCFFFFF0B585B01E000B9B88
:10AD100004000F001500002B20DBFFF7A3FF23002A
:10AD200048331B78002B1BD1390003A809F048F9E0
:10AD30000B9B2A0001930A9B03A900932000330078
:10AD4000FFF7B8FF03A809F02EF90B9B002B02D0E8
:10AD50002000FFF799FF002005B0F0BD0148FBE798
:10AD60000148F9E717FCFFFF11FCFFFFF8B50400ED
:10AD7000171E1DDD060048363378002B02D03378CD
:10AD8000012B17D12200E3795632013B13702300C7
:10AD90000025200054331D80503009F0A5F8230011
:10ADA0004A331F80022328004C3425803370F8BDBD
:10ADB0000148FCE70148FAE717FCFFFF12FCFFFF20
:10ADC000F7B504000F00161E18DDFFF74BFF230038
:10ADD00048331B78DDB2002B12D1390001A809F0ED
:10ADE0007BF8320001A92000FFF7C0FF01A809F09D
:10ADF0001EF82000FFF748FF2800FEBD0148FCE7D1
:10AE00000148FAE717FCFFFF11FCFFFFF8B504004B
:10AE1000171E2DDD060048363278002A02D032781F
:10AE2000012A27D15D42069BFF331FD16B1D2200F3
:10AE30001BB2643213802300200066331D70603023
:10AE400009F0C6F8230000226C331A70954200D036
:10AE50003D0023004A331D80079B00205A1E93416A
:10AE6000013F4C34053327803370F8BD069BDEE785
:10AE70000148FAE70148F8E717FCFFFF12FCFFFF63
:10AE8000F0B587B004000F00161E03931EDDFFF718
:10AE9000E9FE230048331B78DDB2002B18D13900BE
:10AEA00005A809F08DF80D9B320001930C9B05A9B4
:10AEB00000932000039BFFF7A9FF05A809F073F892
:10AEC0002000FFF7E1FE280007B0F0BD0148FBE7D6
:10AED0000148F9E717FCFFFF11FCFFFFFF2902D82B
:10AEE0004172002070470148FCE7C04617FCFFFF95
:10AEF00013B5040004A80078009020000BF0AAFD10
:10AF0000002801D1207516BD0048FCE70EFCFFFFAC
:10AF100013B5040004A80078009020000BF082FD17
:10AF2000002801D1207516BD0048FCE70EFCFFFF8C
:10AF30007FB50D0011000F226A4404001E1E11701F
:10AF400016D0089B002B13DD012329000093FFF787
:10AF5000DFFF002802D0074804B070BD0090320027
:10AF600029002000089BFFF7C3FF0028F4D0F2E778
:10AF70000148F1E70EFCFFFF17FCFFFFF7B50600E5
:10AF80000D1E01D12048FEBD002302270469019354
:10AF9000002C04D1019B002BF4DD2000F3E7AA88EC
:10AFA000A38853403B422DD13A4222D1A268AB68DC
:10AFB0009A4227D12B88002B02D022889A4221D195
:10AFC0006B88002B02D062889A421BD1EB68E26842
:10AFD000934201D0002B15D17368002B01D02000C3
:10AFE0009847A288094B1343A380019B0133019327
:10AFF00008E0A968A0680AF08CFC0028DAD1AB88C8
:10B000003B42D3D0E46AC3E717FCFFFF0080FFFF99
:10B01000F0B506000C0085B000295BD0012705695A
:10B02000002D0CD1306922880100031E33D1346118
:10B0300001236846284908F093FF002020E0022100
:10B04000A28800230A4202D0AB885B083B402968F3
:10B050002268914218D1A868A168002B12D00AF08A
:10B0600058FC002810D0E268EB689A420CD1042109
:10B070006A5EAB88002A02DA5B045B0CAB8017487F
:10B0800005B0F0BD8842EED0ED6AC9E7DD6A19006F
:10B09000002D0CD02B001D889542F7D3002B06D035
:10B0A0001D88954203D15F886588AF420BD98842DD
:10B0B0000CD10B889A4204D308D1488863889842FF
:10B0C00004D9E162B3E71900DB6AE7E7CB6AE36220
:10B0D000CC62ADE70248D3E7FD03000016FCFFFF9A
:10B0E00017FCFFFF10B50400044B0360044B08304D
:10B0F0000360FEF7A3FA200010BDC046B87402003A
:10B10000DC74020008B4024B9C46083808BC604757
:10B11000E5B0010008B4024B9C46083808BC604703
:10B12000EB4C020000230B4A10B502600A4A436050
:10B13000838183738260036143618361838304003D
:10B140000830FEF76DFA054B1A68002A00D11C6022
:10B15000200010BDB8740200DC7402000425002039
:10B1600082B0F7B50125C02709930CAB1B780469A1
:10B1700008920193002C04D12800FEBC08BC02B048
:10B18000184708AA238812889A4201D0002B28D198
:10B1900008AA638852889A4201D0002B21D1FEF779
:10B1A00063F90123002805D0A3883B40C03B5A42E5
:10B1B0005341DBB2019A934219D10422A35EA688BF
:10B1C000002B14DB102208A9A01808F0F1F876066D
:10B1D00009D4FEF749F9002805D021000548FEF7FB
:10B1E00013FBE46AC6E7200009F088FDF9E70025B3
:10B1F000F7E7C046FD4C020008B4024B9C460838F5
:10B2000008BC60478F4E020010B5024808F09EFE51
:10B2100010BDC046A0200020F0B587B001930EAB52
:10B220001B88060003930D9B0D000093019B0C9F50
:10B230000292002B3DD0002F02D1009BDB0738D5B6
:10B2400030200BF004FF0400103008F07FFE2000D7
:10B25000243008F023FD029B2580638018200BF02A
:10B26000F6FE0500009B08220593019B0021036068
:10B270000C30049707F0BCFC082204A9281D08F034
:10B2800097F80D4B02226B6100230399E360236260
:10B29000E36233680A43300021005B68A560A28046
:10B2A0009847002805D0200008F082FD20000BF010
:10B2B000CAFE07B0F0BDC046DD4E0200F0B5002565
:10B2C0008BB004928380174A049B174E040085714B
:10B2D000026001814381057330688C46A8421DD00D
:10B2E000124A079505920692C02202926A4606AB60
:10B2F00082CB82C2614623002A00FFF78DFF059AA8
:10B3000030680892C02202926A4608AB099542CB87
:10B3100042C223002A000499FFF77EFF20000BB0F1
:10B32000F0BDC046F4740200042500201350020052
:10B3300030B5002403730123034D847105608180BF
:10B3400082734373846030BDF073020070B58379FB
:10B350000400DB0704D58068002801D00BF073FEE1
:10B36000A3799B0704D5A068002801D00BF06BFEE1
:10B37000A3795B0709D5A0230021154AA068DB004B
:10B38000D150884201D00BF05EFEA3791B0708D58F
:10B39000A568002D05D028000AF02BFB28000BF033
:10B3A00052FEA379DB0605D5A068002802D0036809
:10B3B000DB6898476023A2791A4205D0A06800286C
:10B3C00002D003685B6898470023A360A37170BD37
:10B3D00000700040F7B50225037B04000F002B42EC
:10B3E00026D0012926D883791A002A4001922B42BF
:10B3F00014D1FFF7ABFF18200BF029FE0E23060037
:10B40000E35618220199009307F0F2FB30000099EF
:10B410000BF067FCA379A6601D43A571A3685A6869
:10B42000002F03D0DB6800201A60FEBD1B69FAE71D
:10B430000148FAE70148F8E716FCFFFF17FCFFFF99
:10B44000F7B50126037B040033422CD082796123B7
:10B450001100194001911A4216D1FFF777FF182009
:10B460000BF0F5FD0E230500E35618220093677BD1
:10B47000019907F0BDFB3A00280000990BF027FC6A
:10B48000A379A5603343A3716023A279A0681A420F
:10B4900002D00BF000FBFEBD436940681B681840FA
:10B4A000431E9841F7E70148F5E7C04616FCFFFF49
:10B4B00010B583794173DA0704D580680BF0A5FCD9
:10B4C000002010BD6022134203D080680BF0EAFA1E
:10B4D000F6E70148F5E7C04616FCFFFF70B504002B
:10B4E00000250C4B0E00858085710360210018300B
:10B4F00009F03FFE20002100203009F064FE064BD9
:10B500002000A680E5802572E560256165611C60EC
:10B5100070BDC0460C750200182500208379DB073A
:10B5200002D5C160002070470048FCE716FCFFFF11
:10B530008379DB0701D5C06870470148FCE7C04646
:10B5400016FCFFFF70B545690400002D22D0037A78
:10B55000032B21D8FFF7ECFFE86230200BF077FDDA
:10B5600030220021050007F043FB002263699A6244
:10B570002369934207D1636923610020237A6561BF
:10B580000133237270BD1A009B6A002BFBD16369E3
:10B590009362F2E70148F5E70148F3E717FCFFFF84
:10B5A00013FCFFFF154B70B55A68154C002A03D0E9
:10B5B00000225A600132A2601A69002A18D00021C4
:10B5C00019618023DB000F4EE3583568012B10D141
:10B5D000A923DB00E15828004942FFF79FFF28001C
:10B5E000FFF7B0FF33685A69074BE2500123A360AD
:10B5F00070BD2800FFF792FFF8E7C046FC1000403E
:10B6000000100040182500200405000070B505005A
:10B610000C0008F09DFA002804D1034A034BEC719A
:10B62000D45070BD0248FCE7001000402405000023
:10B6300016FCFFFFF8B583790500DB0764D408F03A
:10B6400087FA002862D16E69002E08D130300BF0E5
:10B65000FEFC04003022310007F0CAFA6C610022BF
:10B660002B4B01215A608022D20511605A68002AB2
:10B67000FCD00622274B284C9A56284B0026E25035
:10B680000722043BE2500833E650254A254B2800A8
:10B69000E250E979FFF7BAFF01220821224B234843
:10B6A000E6500433E250224B224FE1500433E05085
:10B6B00002232148235021482750214F0438275086
:10B6C0001827204827506F691F482750C120800045
:10B6D00021501E498538FF380B500B6080218900AE
:10B6E00060580E3303436350194B5E6062605A68C2
:10B6F000002AFCD0002201261A612800A660FDF76E
:10B700008FFFAB791E43AE710020F8BD1148FCE7F6
:10B71000FC0000407E830200001000400C05000089
:10B72000746962751C0500002C05000023000402EA
:10B7300014050000FFFF0000340500003C05000078
:10B7400021100100540500000405000000E100E0A4
:10B75000FC10004016FCFFFF03000069002809D020
:10B760000221054AD167826A1A611A7A013A1A726D
:10B77000024B19607047C04604E100E000E100E0C0
:10B7800070B505000C0008F0E3F900283AD1002C50
:10B790003AD02378262B37D8022201211B4BDA67B7
:10B7A0001B4A1C4B5861116159690029FCD00020CB
:10B7B0001949545058600130106058680028FCD076
:10B7C000002018610130906018690028FCD0686979
:10B7D0005050002159610131116159690029FCD093
:10B7E000002159600131516059680029FCD00020C6
:10B7F00018610123C02193600222084B49005A506E
:10B800001A6070BD0648FCE70648FAE704E100E06C
:10B8100000100040FC1000400405000000E100E0C2
:10B8200016FCFFFF17FCFFFF10B504008CB00029C9
:10B8300011D0262A0FD86846D31C03700123437009
:10B84000FF33438001A807F0B3FD69462068FFF786
:10B8500097FF0CB010BD0148FBE7C04617FCFFFF87
:10B8600070B504001D0004AB1E7804F05BFF2000DF
:10B870000F4B40302360FEF7A5F92300220001356D
:10B880004C331D700023E1215832013616700A3AFC
:10B89000A3646365138053809381D381013B636408
:10B8A000044B2000490219600BF041F9200070BDE3
:10B8B000A07302001C250020F7B580277F053E6994
:10B8C0007C690822113C744305002100684607F09A
:10B8D0006FFD104B009A9A421AD0009300230193F7
:10B8E000796928001339714309F084FC019A280012
:10B8F000009909F097FC2100280009F07BFC310039
:10B900007A692800133A5143B308220009F07CFCFD
:10B910000198FEBDFECA0000F0B50E00ABB00021DC
:10B920000C920700302212A81D0007F061F93000C8
:10B9300006F0ECFE431C0B93102B00D9B9E0202D30
:10B9400000D9B6E03100380009F099FC041E69D135
:10B9500031000B9A12A807F02BFD2A000C9916A8AB
:10B9600007F026FD80235B051A6938000B925A699F
:10B970000B99113A51435D690D91FFF79DFF0D9BA6
:10B9800030220833002104001EA80F9307F030F97D
:10B9900029000B9B13395943380009F02BFC002375
:10B9A0000F9D0C930E930C9BA3424ADB0E9B002B26
:10B9B00026D10B9B3021981E05F07CFCA04200D1C3
:10B9C00079E03E49651C38002A001091119509F074
:10B9D00029FCE3433022DB17234053430F9AD3184B
:10B9E0006A46099315AB13CB13C213CB13C213CB07
:10B9F00013C238001299139A149B09F021FC2C00F1
:10BA000038000D9909F0F6FB80235B055A690C2379
:10BA100063430B99133A514338000D9A023309F0EE
:10BA2000F3FB0BE02A000C99103007F007FD0D9096
:10BA300020000BF008FB0D9B002B89D100202BB0C0
:10BA4000F0BD290030221EA807F0B2FC12A91EA8E2
:10BA500007F094FB00281CD11849380022001091EF
:10BA6000119409F0DFFB6A46099515AB43CB43C23D
:10BA700043CB43C243CB43C23800149B1299139A61
:10BA800009F0DEFB01230E930C9B303501330C9340
:10BA900089E76A46099521AB43CB43C243CB43C2F6
:10BAA00043CB43C238001E991F9A209B09F0C8FB64
:10BAB000EAE70348C3E70348C1E7C046FECA0000FF
:10BAC00017FCFFFF13FCFFFF8023F0B55B051A692D
:10BAD00095B002925A6905910299113A51435C69F5
:10BAE000029B133C05005C430391FFF7E5FE061E35
:10BAF0001AD00027039B302208330021083408A8FD
:10BB0000019307F075F82100280009F073FB0497F2
:10BB1000B7420CDB049B002B2AD11F4932002800BE
:10BB20000691079609F07EFB1C4815B0F0BD0199FF
:10BB3000302208A807F03CFC059908A807F01EFB76
:10BB400000280DD11449721E28000691079209F0B1
:10BB500069FB01230493019B013730330193D7E73D
:10BB600022000C232800019909F04EFB3034F2E743
:10BB70002800039909F03EFB80235B055A690C23DA
:10BB800073430299133A280051430233039A09F090
:10BB90003BFB0020C9E7C046FECA00000CFCFFFFCB
:10BBA00070B50400A280FA22002308000C4992001C
:10BBB0002160A3710B496061E260A360638209F0B8
:10BBC0005EFB051E09D00100200002221031123058
:10BBD00007F0EEFB28000BF036FA200070BDC046DF
:10BBE000247502003A7F020030B5022583790400F3
:10BBF00087B02B4204D1FDF713FDA3791D43A57136
:10BC0000200009F081FB00281CD06B46DD1C2800B9
:10BC100009F071FB2B78002B17D001A809F069FB04
:10BC20000321019AD3170B409B189B102382FDF729
:10BC30004BFFE368A1881B18A360012302A81A0028
:10BC400008F08EF9002007B030BD0122064B1A60C3
:10BC5000064A51680029FCD000215160044A12684C
:10BC6000019201225A60DBE700C00040FCC00040A6
:10BC700008C50040022802D10122014B1A7070470A
:10BC8000DF2A002070B5064D04002B78002B04D16C
:10BC9000044802F03DFA01232B70200070BDC0461D
:10BCA000E02A002075BC010070B50C0007F050FFC1
:10BCB000002810D00023134DA40A2B70200009F097
:10BCC00037FB002803D00A200BF098F8F6E72B7812
:10BCD000002BFCD070BD02210B4B0C4A99508021E7
:10BCE000C90058580028FCD0A120C0001C5058584A
:10BCF0000028FCD0002199508021C9005A58002A00
:10BD0000FCD0E7E7DF2A002000E001400405000046
:10BD1000F8B50E0017001D0007F01AFF002811D01B
:10BD20000023174C23702A003900300009F0FEFA76
:10BD3000002803D00A200BF061F8F4E72378002BE9
:10BD4000FCD0F8BD012380220E4C0F49D200635075
:10BD5000A358002BFCD000239D4207DC0023635036
:10BD60008023DB00E358002BFAD0EAE798003A582A
:10BD700032508022D200A0580028FAD00133EBE7DD
:10BD8000DF2A002000E001400405000008B4024B57
:10BD90009C46443808BC604735530200F7B5FA2189
:10BDA0000389C9005943344B04001800019309F07A
:10BDB000C5FDFA21890005F07DFA304FA17A208176
:10BDC000380009F0BBFD23002600250022894C33F2
:10BDD000A072A0361A808C3500232A223178286878
:10BDE00008F0D5FE002801D02548FEBD1F235B22A8
:10BDF0003178286808F0CBFE0028F5D120235C229A
:10BE00003178286808F0C3FE0028EDD101232C22E8
:10BE10003178286808F0BBFE0028E5D101232D22E7
:10BE20003178286808F0B3FE0028DDD101232E22E6
:10BE30003178286808F0ABFE0028D5D1A17A380007
:10BE400009F077FD0E22C3B23178286808F09FFE12
:10BE50000028C9D1FA21238989005943019809F0A2
:10BE600068FD012303432A2231782868DBB208F0F9
:10BE70008EFE0028B9D0B7E794750200DC75020089
:10BE80000EFCFFFF08B4024B9C46443808BC6047D8
:10BE90009DBD0100F0B504258379040089B02B42D3
:10BEA00004D1FDF7BDFBA3791D43A571200090309F
:10BEB000FFF7C6FA002802D0002009B0F0BD230029
:10BEC000A033197820000C2305AD00938C302B0093
:10BED00001220068FFF72CF8002801D01C48ECE78D
:10BEE000AA882888D2BA94466B88EE882F896A89F6
:10BEF0001F25D2BA0392A17ADBBA4B435B42DA1711
:10BF00002A40D218C0BA52116346A26102004A43C5
:10BF10005943CB172B4059186423FFBA5B427B432C
:10BF2000A3676423491121620399F6BA5E43D017CF
:10BF30004B43284080184011221DE061E667200035
:10BF4000D36708F0CBF92000443008F02AFAB3E7B1
:10BF50000EFCFFFF08B4024B9C46443808BC604707
:10BF600095BE010010B50400054B0360054B44303D
:10BF7000036008F00FFA200008F03FF9200010BD20
:10BF80003C7502007075020008B4024B9C464438B0
:10BF900008BC604765BF010008B4024B9C464438AA
:10BFA00008BC60473F530200F7B51E00040008AB11
:10BFB0001F8809AB15001A880AAB1B880091310055
:10BFC0000193FDF7AFFF20003100019A4430FEF7E6
:10BFD000F9F9124B20002360114B009A636423008F
:10BFE0008C331A60AB8890308380AB7983710D4BB2
:10BFF000AA6803600E23EB5682602200A9899C3256
:10C00000118083732300A0331F800321FFF750FAB0
:10C010002000FFF7C3FE2000FEBDC0463C750200B5
:10C0200070750200F0730200F7B5FA26294B0189FA
:10C03000B600040071431800019309F07FFC310041
:10C0400005F038F9244FA17A2081380009F076FCF8
:10C050002500A072583500232A222978606C08F048
:10C0600096FD002801D01D48FEBD10232B22297803
:10C07000606C08F08CFD0028F5D101232D22297871
:10C08000606C08F084FD0028EDD101232E22297870
:10C09000606C08F07CFD0028E5D1A17A380009F039
:10C0A00048FC0E22C3B22978606C08F070FD0028AD
:10C0B000D9D121890198714309F03BFC0123034345
:10C0C0002A222978606CDBB208F061FD0028CBD011
:10C0D000C9E7C04630760200787602000EFCFFFF0A
:10C0E00030B504258379040085B02B4204D1FDF7D7
:10C0F00097FAA3791D43A57120004830FFF7A0F9F6
:10C10000002802D0002005B030BD23005833197834
:10C11000062302AD009301222B00606CFEF708FF9E
:10C12000002801D00B48EEE7002004210222285607
:10C130006956AA56A37A58435A434B43D200DB00B0
:10C14000524223622368A261C2009B6A2000E2611E
:10C150009847D7E70EFCFFFF10B50400024B0360C1
:10C1600008F04BF8200010BD04760200F8B504007A
:10C170000F00190006AB1E8807AB15001A88FDF7E3
:10C18000D1FE0F4B676423602300AA8848339A804E
:10C19000AA799A710B4AA968A2640E22AA5621654F
:10C1A0002100A889543108809A730023A3712300C9
:10C1B00058331E802000FFF737FF2000F8BDC0462F
:10C1C00004760200F0730200F0B507005C3704004B
:10C1D000002310223978806C87B008F0D8FC032641
:10C1E000002802D01F4807B0F0BD0F2502ABED18A4
:10C1F00001233978009308222B00A06CFEF798FEEB
:10C20000184B9842EED02B78334203D06420FDF7D0
:10C210009FFAEAE7FA262189134DB60071432800F8
:10C2200009F08CFB310005F045F82081A023112294
:10C230003978A06C08F0ABFC0028D3D1A36C28009F
:10C24000039321893F78714309F073FB012318435D
:10C25000C3B210223900039808F099FC0028C2D01C
:10C26000C0E7C0460EFCFFFFC476020030B50825CB
:10C270008379040085B02B4204D1FDF7D1F9A3796D
:10C280001D43A57120004C30FFF7DAF8002802D1D9
:10C29000002005B030BD23005C331978062302ADC1
:10C2A000009301222B00A06CFEF742FE002801D073
:10C2B0000A48EEE764222B882000DBBA5343A363CD
:10C2C0006B88C83ADBBA53436363AB88DBBA5A4323
:10C2D0002368E2631B6A9847DAE7C0460EFCFFFF5B
:10C2E00010B50400024B036008F054F8200010BDA4
:10C2F000A0760200F8B504000F00190006AB1E88F6
:10C3000007AB15001A88FEF75DF80D4BA764236094
:10C310002300AA884C339A80AA799A71094AA9689D
:10C32000E2640E22AA5661652100A889583108806E
:10C330001E8220009A73FFF747FF2000F8BDC04619
:10C34000A0760200F0730200F0B5FA270189224DB1
:10C35000BF0085B004007943280009F0EFFA3900E6
:10C3600004F0A8FF1D4BA17A20811800019326003C
:10C3700009F0E4FA636CA07202935836337828000F
:10C3800003932189794309F0D4FA07230343202238
:10C3900003990298DBB208F0FAFB002802D010489B
:10C3A00005B0F0BD102322223178606C08F0EFFB5D
:10C3B0000028F4D1A17A0198656C367809F0B9FAB1
:10C3C00080235B420343232231002800DBB208F0C4
:10C3D000DEFB0028E4D0E2E758770200A8770200ED
:10C3E0000EFCFFFF7FB50425837904002B4204D1A6
:10C3F000FDF716F9A3791D43A57120004830FFF71A
:10C400001FF8002802D1002004B070BD230058336B
:10C410001978062302AD0093A8222B00606CFEF76A
:10C4200087FD002801D01348EEE71F200023EA5EB5
:10C43000D31703409B180222A95E5B11CA17024062
:10C44000521804216E5E5211F117014089194911E9
:10C450002B806A80A980A07A4343424348435B42D1
:10C46000E3612368524220629B6A2000A2619847E0
:10C47000C9E7C0460EFCFFFF10B50400024B036085
:10C4800007F0BBFE200010BD2C770200F8B50400B9
:10C490000F00190006AB1E8807AB15001A88FDF7C0
:10C4A00041FD0F4B676423602300AA8848339A80BC
:10C4B000AA799A710B4AA968A2640E22AA5621652C
:10C4C0002100A889543108809A730023A3712300A6
:10C4D00058331E802000FFF737FF2000F8BDC0460C
:10C4E0002C770200F0730200F7B5FA2504000189E9
:10C4F000134EAD006943300009F020FA290004F022
:10C50000D9FE2700A36C208100935C373B7881B271
:10C5100069433000019309F00CFA6022C3B201991B
:10C52000009808F034FB002801D00648FEBD012326
:10C5300062223978A06C08F02AFB0028F6D0F4E7D4
:10C54000FC7702000EFCFFFF30B50825837904005C
:10C5500085B02B4204D1FDF763F8A3791D43A57183
:10C5600020004C30FEF76CFF002802D1002005B0FF
:10C5700030BD23005C331978062302AD0093E82216
:10C580002B00A06CFEF7D4FC002801D00A48EEE78F
:10C590000223EA5E96235B425A43626300216A5E8D
:10C5A00020005343A3630423EA5E96235343E363CB
:10C5B00023681B6A9847D9E70EFCFFFF10B50400FB
:10C5C000024B036007F0E6FE200010BDD8770200A2
:10C5D000F8B504000F00190006AB1E8807AB150064
:10C5E0001A88FDF7EFFE0D4BA76423602300AA888D
:10C5F0004C339A80AA799A71094AA968E2640E229A
:10C60000AA5661652100A889583108801E82200041
:10C610009A73FFF769FF2000F8BDC046D877020083
:10C62000F073020010B50400054B03601C3007F0E6
:10C63000FEFB2000183007F0FAFB200010BDC046BA
:10C640002C780200FF23F0B52C4E8DB03370002300
:10C65000040069460088009303F084F8002802D1A2
:10C660006B469B783370264D2B68DB68002B07D117
:10C67000002320881A00190008F0D1FE0DB0F0BD8B
:10C680003378032BF4D81F4901A8FDF761FA2B6812
:10C6900001A9DD6804A807F01FFC280004A908F020
:10C6A0001CFE0027050004A807F0C1FBBD4219D0FD
:10C6B00029002022103104A806F07AFE28000AF092
:10C6C000C2FC337804AADB00D11802A8082206F0C5
:10C6D0006FFE01230822208802A908F0A0FEB842BC
:10C6E00006D0012701A807F0A2FB002FC0D0C5E7A4
:10C6F0000C212088044A08F090FEF2E76C2000200C
:10C7000020250020427F0200FFFF0000F0B5837962
:10C71000040091B05B071BD5FDF7D6F90023226911
:10C72000801A9941994203D1F533FF3398420FD3D0
:10C73000A068002808D0354B1D8809F082F90368ED
:10C74000152229001B6A98470422A3799343A371F9
:10C75000A3799B0758D52E4E3368DB68002B4FD04A
:10C760002C4F3B78032B4BD8284B2B491B8804A814
:10C770000193FDF7EDF9336804A9DD6808A807F017
:10C78000ABFB08A9280008F0A8FD050008A807F0E1
:10C790004EFB082302AAD3800198073B063206A964
:10C7A00008F03FFE002D08D029002022103108A8F3
:10C7B00006F0FEFD28000AF046FC3B7808A9DB00E5
:10C7C000CD1802AA2800D28806A906F037FE002854
:10C7D00013D00822280006A906F0EAFD336804A950
:10C7E000DD6805A807F078FB2023280008AA05A922
:10C7F00008F079FD05A807F01AFB04A807F017FB5D
:10C800000222A3799343A37111B0F0BD882A0020BE
:10C81000202500206C200020427F0200F0B504009B
:10C82000150085B001930AAB1F880BAB1B78461C23
:10C8300002930EAB1B78102203930B7803704B8A84
:10C8400001314382300006F0B3FD6561002501220D
:10C85000019B27836383039BE5832377029B20004F
:10C86000F377A31CDA770C9B0C26636223000D9AE6
:10C87000283329001A705D7032009D702C3006F04C
:10C88000B7F92000064B3200A3632900E56340306E
:10C8900006F0AEF92000034B2565E36405B0F0BD5A
:10C8A000395402002B54020070B50D0009F0C9F88C
:10C8B00004000368002D09D15B699847FA208000C5
:10C8C0006843074904F0F6FCE08070BD9B68984718
:10C8D0008542F3D2236820009B6898470500EDE766
:10C8E00071020000F0B507001400A3B00B9102C75D
:10C8F00006006C491AA81D0008F098FE231E03D0FC
:10C90000200005F003FF83B201220492002203926B
:10C91000029202320192009322001AA93800FFF716
:10C920007DFF3300604958331AA8079308F07EFE54
:10C930002B1E03D0280005F0E9FE83B201220492E9
:10C940000022039202920232019200932A001AA955
:10C950000798FFF763FF33005449AC331AA80893D4
:10C9600008F064FE289B002B03D0180005F0CEFED3
:10C9700083B20122049200220392029202320192B7
:10C980000093289A1AA90898FFF748FF731CFF33F1
:10C9900047491AA8099308F049FE299B002B03D0A8
:10C9A000180005F0B3FE83B2012204920022701C2D
:10C9B00003920292023201920093299A1AA9FF303F
:10C9C000FFF72CFF33005533FF333A491AA8099378
:10C9D00008F02CFE2A9B002B03D0180005F096FED1
:10C9E00083B2012204920022039202920232019247
:10C9F00000932A9A1AA90998FFF710FF3300A93368
:10CA0000FF332D491AA80A9308F010FE2B9B002B28
:10CA100003D0180005F07AFE83B2012204920022AE
:10CA20001AAC0392029202320192009321002B9AD7
:10CA30000A98FFF7F3FE214B0C931B780D93002B04
:10CA40002DD1079B1E491593089B0FA81693731CA5
:10CA5000FF331793099B149718930A9B14AD1993EE
:10CA600008F0E4FD1D21492008AB1B7F1022237034
:10CA700008ABDB8D638208ABC918C01806F098FCC0
:10CA8000062323750D9B20950B98A38308F0DDFFEB
:10CA9000036821001B68984701220C9B1A70300024
:10CAA00023B0F0BD292A0000242A0000252A000016
:10CAB000272A0000262A0000282A0000E12A002058
:10CAC0000A18000070B5002504000B4B85808571A5
:10CAD0000360C1601830FDF775F820001C30FDF7C9
:10CAE00071F80123621CD377044A2000A5606561B8
:10CAF0001460A37170BDC0462C7802002025002070
:10CB0000FA2130B585B0040001230222684689006D
:10CB100007F026FA074D2868002809D008F092FD92
:10CB20002188054B2A681980022391790B43937160
:10CB300005B030BD20250020882A002010B50C004B
:10CB400007290DD8806808F07CFF064B1957036849
:10CB50005B6C9847431E9841034B4042184010BD00
:10CB60000248FCE77E83020016FCFFFF17FCFFFF74
:10CB7000F0B59B4C0D00A544040007939AAB1B78BD
:10CB8000984909A804930692FCF7E2FF20002900C7
:10CB90001C3007F0A9F9C020800001F0AFFA08208E
:10CBA0000AF055FA060000210EAF08F03FFF15AD60
:10CBB0000C220021A660380006F01AF82B0007CFDF
:10CBC00007C30027884B290030001893199708F0F5
:10CBD00016FFA06808F035FF08223900059016A856
:10CBE00006F006F814200AF032FA804B1593030081
:10CBF00046CD46C3059E7E4B0761A036C360736871
:10CC0000BB4200D003617060A06808F01EFF0822DC
:10CC10000021050016A805F0EBFF14200AF017FA12
:10CC2000744A03001592020015A9C1C9C1C2724A13
:10CC3000DA6000221A612A6B002A00D01A612B6385
:10CC4000A06808F0FEFE08220021050016A805F0E5
:10CC5000CFFF14200AF0FBF9684B15AF15930300C2
:10CC600046CF46C3664B9435C360002303616B68AF
:10CC7000002B00D003616860012504AB1B7C04AA73
:10CC80002B4308A92800137408F0CDFBA06808F016
:10CC9000E0FE03685B495B6A9847A06808F0D9FE2C
:10CCA000036859499B699847A06808F0D2FE0023A1
:10CCB00002680093176804992A00B847049B002B68
:10CCC0000AD0200008F0C7FC032805DDA06808F0A2
:10CCD000C0FE0368DB68984700250EAF781907355A
:10CCE00008F0F3FB1C2DF8D1183D04ABA0680A979F
:10CCF0005D7708F0AEFE03680AA91B699847A06833
:10CD000008F09FFE03680AA95B6D9847A06808F0C9
:10CD100098FE03680021DB6D9847A06808F091FE3B
:10CD2000036802219B6D984700212000FFF706FF52
:10CD300018200AF08CF9A16800F044FA3349344B0A
:10CD40000968344A0391344915A8096800260291FC
:10CD500032490CAF09680191069909684919009197
:10CD60001B681268A168FFF7BDFD30200AF06FF95B
:10CD7000079AA16800F0ECFAA06808F062FE036868
:10CD800039009B6A9847264BA0680C93BE8008F038
:10CD900058FE03683900DB6A98472900A06808F04C
:10CDA00018FC099A09219378A068521908F024FC0C
:10CDB000A06808F046FE32210671A068FFF774FDF6
:10CDC00004AB1B7FB34204D0A06808F03AFE08F021
:10CDD00072FB09A807F02BF895239B009D44F0BD3A
:10CDE000ACFDFFFF4E7F02004754020001CB010063
:10CDF0005554020045C601006354020091540200DC
:10CE00007154020025CE010059CE010024250020D6
:10CE10000C2000202C2500200820002028250020A0
:10CE20000800100013B506226846FCF7A1FE094B66
:10CE30001C68002C0AD0694601A807F04DF82000B4
:10CE400001A908F022FC01A806F0F1FF684606F0EF
:10CE5000EEFF13BD20250020002373B501AE0C00AA
:10CE600031000500019302F07DFC002802D1074B40
:10CE7000B2781A70064B1868002806D0054B1D8042
:10CE800063425C41E1B208F008FC73BD6C200020F5
:10CE900020250020882A002030B5284CA9B06A221D
:10CEA0000D000DA8210006F083FA0DA903A8FCF7D8
:10CEB000BDFE03A906A807F083F801230193013BF7
:10CEC000FF3B00930533FF33642206A92800FDF7DA
:10CED000D7FF06A807F067F8210019226A3106A8D3
:10CEE00006F066FA05220024110006AB04A807F03C
:10CEF0008EF804A905A807F063F823002200280093
:10CF00000194009405A9FDF7FFFE05A807F04BF872
:10CF100021002800FDF7E2FF05340520FCF718FC8E
:10CF2000FF2CF5D1FA208000FCF712FC04A807F0D2
:10CF30003AF803A807F037F829B030BD868302001D
:10CF4000F0B5974B95B005921A6808230400039139
:10CF5000D16C06A80B43D3649249FCF7F9FD9249C2
:10CF600007A8FCF7F5FD220000250DAE30001C32AD
:10CF700006A906F0C8FF310007AA08A806F0C3FFFB
:10CF8000300006F054FF631CDD77A06808F059FDFF
:10CF900003685B6998477019073508F096FA1C2DED
:10CFA000F9D180230BADDB00A068AB800B9608F0B5
:10CFB00048FD036829005B6D9847A06808F041FDB3
:10CFC000036800219B6D9847A06808F03AFD0700B0
:10CFD000002506000A371F220021380005F008FE50
:10CFE0003000FD7708F05EFA0621A06808F0F1FA3B
:10CFF000089A09219378A068043208F0FDFAA06825
:10D0000008F01FFDC8210571A068FFF74DFCA0685E
:10D0100008F017FDFF270581A06808F012FD08F051
:10D020004AFA0398FDF702FE2000FCF7F9FA200007
:10D030000399FFF731FF2000039908F041FB0495A5
:10D040006269012316001E401A422DD0574909A8D3
:10D05000FCF766FE09A90AA806F0B2FF00220AA999
:10D060001300019200920398FDF74EFE0AA806F005
:10D070009AFF049B002B73D1043F282F72DC039886
:10D0800007F078FD002F70DC059807F06FF9002895
:10D0900005D0012263699343033213436361002582
:10D0A00009A806F080FF049604226369134229D080
:10D0B000FF21C8260398FDF711FF0025B600A369DC
:10D0C00002229B5EAB4218DD200029B2183006F028
:10D0D00030FF0023010003981A007430FCF770FE43
:10D0E0003000FCF735FB039807F044FDC820FCF73F
:10D0F0002FFB02226369134239D0FA208000FCF72B
:10D1000027FB00250222636913421ED01E0006324F
:10D11000164013422DD0264909A8FCF701FE09A9A3
:10D120000AA806F04DFF00220AA9130001920092FE
:10D130000398FDF7E9FD0AA806F035FF1D48FCF746
:10D1400007FB09A806F02FFF1B4D6420FCF700FB2E
:10D150001A4B01359D4200DC72E706F00BFD6FE7CC
:10D1600004378AE70026FE2F8EDC049E8CE701350B
:10D17000A5E7134909A8FCF7D3FD09A90AA806F0F9
:10D180001FFF330032000AA9039801960096FDF7AD
:10D19000BBFD0AA806F007FF09A806F004FFD4E7C4
:10D1A000B02400205C7F02006C7F02006E7F0200D2
:10D1B000B37F0200983A00008C0A00008B0A00003E
:10D1C000F07F02005C4BF0B5036081600400252015
:10D1D000A9B002AB10220391C018002105F008FD90
:10D1E00001230BAD2B700023544A0133013A112B5C
:10D1F00000D097E0252102AA20339B181A785B788B
:10D2000013AE1B0213432200738202ABC9184523DD
:10D210000C32029202A82A781B18180032701022D1
:10D2200006F0C6F8029B642118930A230025012703
:10D2300002AA521813705B1802AA9B1829000C222C
:10D240001EA81D7019973777F5831C95358505F055
:10D25000CFFC3B4B0C22290023A82193229505F0FB
:10D26000C7FC384B02AA269346239B1803221120A1
:10D27000DA7702ABC018290025730D322795059681
:10D2800005F0B6FC02AB1F742F4B0135013B112D8D
:10D290004BD11D231121252002AA9B181A785B78F7
:10D2A0000BAD1B02134302AA127C6B8202ABC9189E
:10D2B0002A70C018102206F07BF8012300272B7576
:10D2C00005AB11930398AF8308F0BFFB03682900F7
:10D2D0001B68984713ABDB8BA068A38208F0B5FBF3
:10D2E0000368A18A0097029ADD680123A847A06815
:10D2F00008F0ABFB0600142009F0A9FE012305008D
:10D300000761082210C006A90793069706F050F897
:10D310000E4BEB60B369BB4200D02B612000B561BE
:10D3200029B0F0BD117CE9545FE710201A7C02A9F6
:10D3300009184A55A9E7C04644780200098402004A
:10D34000395402002B5402001984020021570200B4
:10D35000F0B500240500734BDBB003608160C26050
:10D36000714922008480847145A808F097FA2B0047
:10D3700014330127042608931223089A0497019373
:10D380000096230045A9039402941BA8FFF746FAD0
:10D390002200664945A808F081FA0C232A00049768
:10D3A000103201930096230045A90394029430A8FB
:10D3B000FFF734FA22005E4913A808F06FFA29003B
:10D3C0001C31099108212300099A049701910096C4
:10D3D00013A90394029445A8FFF720FA542009F0FA
:10D3E00036FE22000600534913A808F057FA290018
:10D3F0001222042318313000079104970192009300
:10D400000A00230013A903940294FFF707FA3000DF
:10D41000494B0822AE62F56213A93030139314947D
:10D4200005F0C6FF3200454B2932B36309991770E6
:10D43000079804222C61EC6105F0BAFF04220799D9
:10D44000089805F0B5FF5E22032304A95218D3778C
:10D45000B2225218D3770A000732FF32D377B21CB8
:10D46000D3771BAA0A9230AA0B9245AA34490C9290
:10D47000AC8522000EA80D9608F010FA28213D2058
:10D4800004AA52181378143104AA5218137004AA6B
:10D49000538F123152181380253904ABC91810224A
:10D4A000C01805F085FF5021042304AA52181370F8
:10D4B000582204AB9B180AAF1997A8681C8008F083
:10D4C000C4FA036813A91B6898477A2204AB9B1817
:10D4D0001B8854322B8404AB9B181B885432AB84BA
:10D4E00004AB9B181B88A8686B8408F0AEFA070091
:10D4F000142009F0ACFD0600124B0461082220C084
:10D500000EA90E930F9405F053FF0F4BF360BB6908
:10D51000A34200D033612800BE61FCF781F82800E7
:10D520005BB0F0BD507802005984020049840200CB
:10D5300029840200398402006F5802009F570200BC
:10D540006984020015D60100C9570200F0B5040035
:10D5500085B01F000CAB1B88103001930E00150026
:10D5600006F0F4FC2000243006F098FB268065804D
:10D57000182009F06CFD0826050032000AA902A84F
:10D5800005F016FF2800320000212F600C3005F056
:10D590002FFB320002A9281D05F00AFF064B0222CC
:10D5A00020006B6100230199A5600A43E360A2801B
:10D5B0002362E36205B0F0BDF357020070B50400CA
:10D5C00092B0806800F090F9826D0223110019403A
:10D5D0001A421AD1A38D002B17D00D4AE568049288
:10D5E0001022A18502926A46059104AB41CB41C24B
:10D5F0000A00230006A8FFF7A9FF2B6828009B68F4
:10D6000006A9984706A806F0D3FB12B070BDC04625
:10D6100033580200F0B54B88828C06000D89CC6827
:10D620008DB09A420CD1032D01DC0DB0F0BD6288A3
:10D630002188012308A806F093FC043D0434F2E796
:10D64000428C9A42F1D1032DEFDDF368302005932F
:10D65000238808AF069363880793114B0893002330
:10D66000099309F0F4FCC02302936B46049006CFA3
:10D6700006C333000699079A0498FFF767FF059BD6
:10D6800004991B6805985B689847002805D00498A2
:10D6900006F08EFB049809F0D6FC043D0434D2E772
:10D6A00033580200002815D0006041608260C360DA
:10D6B000046145618661C761444604624C46446228
:10D6C000544684625C46C462644604636E464663A4
:10D6D00074468463002A06D0C46B043C043A25686F
:10D6E0001560B442F9D18C6BA6464E6BB546002B43
:10D6F00006D0CC6B043C043B1D682560B442F9D1D4
:10D700000C6BA446CC6AA3468C6AA2464C6AA1461E
:10D710000C6AA046CF698E694D690C69CB688A682E
:10D72000086849687047006041608260C3600461B6
:10D7300045618661C761444604624C464462544672
:10D7400084625C46C462644604636E464663744603
:10D750008463C46B043C043925680D60B442F9D17C
:10D76000C7698669456904697047006041608260E5
:10D77000C360046145618661C761444604624C46EA
:10D780004462544684625C46C462644604636C46E8
:10D7900044637446846304697047846BA646446B93
:10D7A000A546046BA446C46AA346846AA246446A9A
:10D7B000A146046AA046C769866945690469C368C9
:10D7C000826800684168704710B5041E0ED004F0EE
:10D7D0009DFF01382018A04201D8002010BD2278FA
:10D7E00001780138217042700134F4E70048F5E710
:10D7F00017FCFFFFF0B507000D0085B0002927D00A
:10D800000026C3171C1A5C404B1E0393200002968F
:10D810000A210136019603F0BDFECB17C918594005
:10D82000039B3031200099550A2103F0CDFD041EE1
:10D83000ECD1002F04DA2D23029E019A0236AB545C
:10D8400000232800AB55FFF7BFFF200005B0F0BD57
:10D85000004CFAE717FCFFFF0268084B406810B560
:10D86000C018C000101803009A4200D910BD1C68EF
:10D870008C42FBD31800083BF6E7C046FFFFFF1FB2
:10D8800070B5064D04002B68002B02D108F0BAFADF
:10D89000286023689B00EB58636070BD3025002032
:10D8A00070B500280ED10D4D2E68002E08D108301D
:10D8B00009F0CDFB040006604660FFF7E1FF2C6035
:10D8C000286870BD064A0123116806480C001C40F8
:10D8D0001942F6D1036044601360F2E7402500204E
:10D8E0003425002038250020436810B50400002BA3
:10D8F00002D1044809F0B7F9606803681B699847CA
:10D9000010BDC04649800200436810B50400002BDA
:10D9100002D1044809F0A7F9606803689B69984739
:10D9200010BDC04649800200436810B50400002BBA
:10D9300002D1044809F097F9606803685B6A984768
:10D9400010BDC0464980020000487047FFFF00003C
:10D95000F0B597B00593036807AC1B680491039377
:10D96000110023000600A1C9A1C30025D368290026
:10D970000C220CA80A930B9505F03AF935200B4BB5
:10D9800011AF0F9304AB29001022C01810953D7001
:10D9900005F02EF9059B7D8222000093300004994A
:10D9A000039C01970CABA04717B0F0BD715B020060
:10D9B000FC3070B5046C0500002C0DD1242009F05A
:10D9C00046FB064B44608361054B8460C460046180
:10D9D0004461C46103602864286C70BD347902001E
:10D9E0001C7A0200FC3070B5C56B0400002D11D10B
:10D9F000342009F02CFB084B85604360074B4561E0
:10DA00000361074B0562C361064BC5628362064B27
:10DA1000E0630360E06B70BD64790200547902003A
:10DA2000C4790200D4790200E4790200064B70B593
:10DA3000040003604068002801D1200070BD056922
:10DA400009F001FB2800F6E798780200064B70B554
:10DA5000040003604068002801D1200070BD056902
:10DA600009F0F1FA2800F6E768780200064B70B575
:10DA7000040003604068002801D1200070BD0569E2
:10DA800009F0E1FA2800F6E778780200064B70B555
:10DA9000040003604068002801D1200070BD0569C2
:10DAA00009F0D1FA2800F6E788780200064B70B535
:10DAB000040003604068002801D1200070BD0569A2
:10DAC00009F0C1FA2800F6E734790200064B70B578
:10DAD000040003604068002801D1200070BD056982
